{
  "_format": "hh-sol-artifact-1",
  "contractName": "U2SSORegistry",
  "sourceName": "contracts/U2SSORegistry.sol",
  "abi": [
    {
      "inputs": [],
      "stateMutability": "nonpayable",
      "type": "constructor"
    },
    {
      "inputs": [
        {
          "internalType": "uint256",
          "name": "id",
          "type": "uint256"
        },
        {
          "internalType": "uint256",
          "name": "id33",
          "type": "uint256"
        }
      ],
      "name": "IdentityAlreadyRegistered",
      "type": "error"
    },
    {
      "inputs": [
        {
          "internalType": "uint256",
          "name": "index",
          "type": "uint256"
        }
      ],
      "name": "IndexOutOfBounds",
      "type": "error"
    },
    {
      "inputs": [
        {
          "internalType": "uint256",
          "name": "index",
          "type": "uint256"
        },
        {
          "internalType": "address",
          "name": "caller",
          "type": "address"
        }
      ],
      "name": "NotIdentityOwner",
      "type": "error"
    },
    {
      "anonymous": false,
      "inputs": [
        {
          "indexed": true,
          "internalType": "uint256",
          "name": "index",
          "type": "uint256"
        },
        {
          "indexed": true,
          "internalType": "uint256",
          "name": "id",
          "type": "uint256"
        },
        {
          "indexed": true,
          "internalType": "uint256",
          "name": "id33",
          "type": "uint256"
        },
        {
          "indexed": false,
          "internalType": "address",
          "name": "owner",
          "type": "address"
        }
      ],
      "name": "IdentityRegistered",
      "type": "event"
    },
    {
      "anonymous": false,
      "inputs": [
        {
          "indexed": true,
          "internalType": "uint256",
          "name": "index",
          "type": "uint256"
        },
        {
          "indexed": false,
          "internalType": "address",
          "name": "revokedBy",
          "type": "address"
        }
      ],
      "name": "IdentityRevoked",
      "type": "event"
    },
    {
      "inputs": [
        {
          "internalType": "uint256",
          "name": "id",
          "type": "uint256"
        },
        {
          "internalType": "uint256",
          "name": "id33",
          "type": "uint256"
        }
      ],
      "name": "addID",
      "outputs": [
        {
          "internalType": "uint256",
          "name": "",
          "type": "uint256"
        }
      ],
      "stateMutability": "nonpayable",
      "type": "function"
    },
    {
      "inputs": [],
      "name": "getActiveIDs",
      "outputs": [
        {
          "internalType": "uint256[]",
          "name": "ids",
          "type": "uint256[]"
        },
        {
          "internalType": "uint256[]",
          "name": "id33s",
          "type": "uint256[]"
        }
      ],
      "stateMutability": "view",
      "type": "function"
    },
    {
      "inputs": [
        {
          "internalType": "uint256",
          "name": "id",
          "type": "uint256"
        },
        {
          "internalType": "uint256",
          "name": "id33",
          "type": "uint256"
        }
      ],
      "name": "getIDIndex",
      "outputs": [
        {
          "internalType": "int256",
          "name": "",
          "type": "int256"
        }
      ],
      "stateMutability": "view",
      "type": "function"
    },
    {
      "inputs": [],
      "name": "getIDSize",
      "outputs": [
        {
          "internalType": "uint256",
          "name": "",
          "type": "uint256"
        }
      ],
      "stateMutability": "view",
      "type": "function"
    },
    {
      "inputs": [
        {
          "internalType": "uint256",
          "name": "index",
          "type": "uint256"
        }
      ],
      "name": "getIDs",
      "outputs": [
        {
          "internalType": "uint256",
          "name": "",
          "type": "uint256"
        },
        {
          "internalType": "uint256",
          "name": "",
          "type": "uint256"
        }
      ],
      "stateMutability": "view",
      "type": "function"
    },
    {
      "inputs": [
        {
          "internalType": "uint256",
          "name": "index",
          "type": "uint256"
        }
      ],
      "name": "getIdentity",
      "outputs": [
        {
          "internalType": "uint256",
          "name": "id",
          "type": "uint256"
        },
        {
          "internalType": "uint256",
          "name": "id33",
          "type": "uint256"
        },
        {
          "internalType": "bool",
          "name": "active",
          "type": "bool"
        },
        {
          "internalType": "address",
          "name": "recordOwner",
          "type": "address"
        },
        {
          "internalType": "uint64",
          "name": "registeredAt",
          "type": "uint64"
        }
      ],
      "stateMutability": "view",
      "type": "function"
    },
    {
      "inputs": [
        {
          "internalType": "uint256",
          "name": "index",
          "type": "uint256"
        }
      ],
      "name": "getState",
      "outputs": [
        {
          "internalType": "bool",
          "name": "",
          "type": "bool"
        }
      ],
      "stateMutability": "view",
      "type": "function"
    },
    {
      "inputs": [],
      "name": "owner",
      "outputs": [
        {
          "internalType": "address",
          "name": "",
          "type": "address"
        }
      ],
      "stateMutability": "view",
      "type": "function"
    },
    {
      "inputs": [
        {
          "internalType": "uint256",
          "name": "index",
          "type": "uint256"
        }
      ],
      "name": "revokeID",
      "outputs": [],
      "stateMutability": "nonpayable",
      "type": "function"
    }
  ],
  "bytecode": "0x60a060405234801561001057600080fd5b50336080526080516108f06100376000396000818161016d01526105b301526108f06000f3fe608060405234801561001057600080fd5b50600436106100935760003560e01c806385e3f0581161006657806385e3f0581461010d5780638da5cb5b146101605780639a80d1dd14610197578063ce3375d5146101aa578063e86cf917146101bf57600080fd5b80632d3d11041461009857806344c9af28146100af5780636f1acd98146100d257806372b8dee1146100fa575b600080fd5b6000545b6040519081526020015b60405180910390f35b6100c26100bd3660046107c8565b6101d5565b60405190151581526020016100a6565b6100e56100e03660046107c8565b610230565b604080519283526020830191909152016100a6565b61009c6101083660046107e1565b610290565b61012061011b3660046107c8565b61042e565b604080519586526020860194909452911515928401929092526001600160a01b03909116606083015267ffffffffffffffff16608082015260a0016100a6565b6040516001600160a01b037f00000000000000000000000000000000000000000000000000000000000000001681526020016100a6565b61009c6101a53660046107e1565b6104c2565b6101bd6101b83660046107c8565b61052b565b005b6101c7610642565b6040516100a692919061083f565b6000805482106102005760405163112517f360e21b8152600481018390526024015b60405180910390fd5b600082815481106102135761021361086d565b600091825260209091206002600390920201015460ff1692915050565b60008054819083106102585760405163112517f360e21b8152600481018490526024016101f7565b600080848154811061026c5761026c61086d565b90600052602060002090600302019050806000015481600101549250925050915091565b60008061029d84846104c2565b126102c557604051630d21621b60e01b815260048101849052602481018390526044016101f7565b600080546040805160a081018252868152602081018681526001828401818152336060850181815267ffffffffffffffff428116608088019081529489018a559880529451600388027f290decd9548b62a8d60345a988386fc84ba6bc95484008f6362f93160ef3e56381019190915593517f290decd9548b62a8d60345a988386fc84ba6bc95484008f6362f93160ef3e56485015590517f290decd9548b62a8d60345a988386fc84ba6bc95484008f6362f93160ef3e565909301805494519251909716600160a81b0267ffffffffffffffff60a81b196001600160a01b039390931661010002610100600160a81b0319941515949094166001600160a81b0319909516949094179290921716919091179093555190918491869184917fc1f56aa29cf69c731720437087f060684a7c45b1e66e36b4cf08c95ba3fc33e09161041d916001600160a01b0391909116815260200190565b60405180910390a490505b92915050565b60008060008060008080549050861061045d5760405163112517f360e21b8152600481018790526024016101f7565b60008087815481106104715761047161086d565b6000918252602090912060039091020180546001820154600290920154909991985060ff8116975061010081046001600160a01b03169650600160a81b900467ffffffffffffffff16945092505050565b6000805b6000548110156105205760008082815481106104e4576104e461086d565b9060005260206000209060030201905084816000015414801561050a5750838160010154145b1561051757509050610428565b506001016104c6565b506000199392505050565b60005481106105505760405163112517f360e21b8152600481018290526024016101f7565b60008082815481106105645761056461086d565b906000526020600020906003020190508060020160019054906101000a90046001600160a01b03166001600160a01b0316336001600160a01b0316141580156105d65750336001600160a01b037f00000000000000000000000000000000000000000000000000000000000000001614155b156105fd5760405163f2f808ed60e01b8152600481018390523360248201526044016101f7565b60028101805460ff1916905560405133815282907f7b0104bb092ce7f934da29f0c0dcb9fa85e71475aca2777258facd66dca4dc6e9060200160405180910390a25050565b6060806000805b60005481101561069857600081815481106106665761066661086d565b600091825260209091206002600390920201015460ff16156106905761068d600183610883565b91505b600101610649565b508067ffffffffffffffff8111156106b2576106b26108a4565b6040519080825280602002602001820160405280156106db578160200160208202803683370190505b5092508067ffffffffffffffff8111156106f7576106f76108a4565b604051908082528060200260200182016040528015610720578160200160208202803683370190505b5091506000805b6000548110156107c15760008082815481106107455761074561086d565b60009182526020909120600390910201600281015490915060ff16156107b857806000015486848151811061077c5761077c61086d565b602002602001018181525050806001015485848151811061079f5761079f61086d565b60209081029190910101526107b5600184610883565b92505b50600101610727565b5050509091565b6000602082840312156107da57600080fd5b5035919050565b600080604083850312156107f457600080fd5b50508035926020909101359150565b60008151808452602080850194506020840160005b8381101561083457815187529582019590820190600101610818565b509495945050505050565b6040815260006108526040830185610803565b82810360208401526108648185610803565b95945050505050565b634e487b7160e01b600052603260045260246000fd5b8082018082111561042857634e487b7160e01b600052601160045260246000fd5b634e487b7160e01b600052604160045260246000fdfea2646970667358221220d95f9419f5c6bbfa4b5ecaf054cf8c030d0f2f0c38463abeba752ce454c15b6b64736f6c63430008180033",
  "linkReferences": {},
  "deployedLinkReferences": {}
}