{
  "_format": "hh-sol-artifact-1",
  "contractName": "U2SSORegistry",
  "sourceName": "contracts/U2SSORegistry.sol",
  "abi": [
    {
      "inputs": [],
      "stateMutability": "nonpayable",
      "type": "constructor"
    },
    {
      "inputs": [
        {
          "internalType": "uint256",
          "name": "id",
          "type": "uint256"
        },
        {
          "internalType": "uint256",
          "name": "id33",
          "type": "uint256"
        }
      ],
      "name": "IdentityAlreadyRegistered",
      "type": "error"
    },
    {
      "inputs": [
        {
          "internalType": "uint256",
          "name": "index",
          "type": "uint256"
        }
      ],
      "name": "IndexOutOfBounds",
      "type": "error"
    },
    {
      "inputs": [
        {
          "internalType": "uint256",
          "name": "index",
          "type": "uint256"
        },
        {
          "internalType": "address",
          "name": "caller",
          "type": "address"
        }
      ],
      "name": "NotIdentityOwner",
      "type": "error"
    },
    {
      "anonymous": false,
      "inputs": [
        {
          "indexed": true,
          "internalType": "uint256",
          "name": "index",
          "type": "uint256"
        },
        {
          "indexed": true,
          "internalType": "uint256",
          "name": "id",
          "type": "uint256"
        },
        {
          "indexed": true,
          "internalType": "uint256",
          "name": "id33",
          "type": "uint256"
        },
        {
          "indexed": false,
          "internalType": "address",
          "name": "owner",
          "type": "address"
        }
      ],
      "name": "IdentityRegistered",
      "type": "event"
    },
    {
      "anonymous": false,
      "inputs": [
        {
          "indexed": true,
          "internalType": "uint256",
          "name": "index",
          "type": "uint256"
        },
        {
          "indexed": false,
          "internalType": "address",
          "name": "revokedBy",
          "type": "address"
        }
      ],
      "name": "IdentityRevoked",
      "type": "event"
    },
    {
      "inputs": [
        {
          "internalType": "uint256",
          "name": "id",
          "type": "uint256"
        },
        {
          "internalType": "uint256",
          "name": "id33",
          "type": "uint256"
        },
        {
          "internalType": "uint256",
          "name": "commitment",
          "type": "uint256"
        }
      ],
      "name": "addID",
      "outputs": [
        {
          "internalType": "uint256",
          "name": "",
          "type": "uint256"
        }
      ],
      "stateMutability": "nonpayable",
      "type": "function"
    },
    {
      "inputs": [],
      "name": "getActiveIDs",
      "outputs": [
        {
          "internalType": "uint256[]",
          "name": "ids",
          "type": "uint256[]"
        },
        {
          "internalType": "uint256[]",
          "name": "id33s",
          "type": "uint256[]"
        }
      ],
      "stateMutability": "view",
      "type": "function"
    },
    {
      "inputs": [
        {
          "internalType": "uint256",
          "name": "id",
          "type": "uint256"
        },
        {
          "internalType": "uint256",
          "name": "id33",
          "type": "uint256"
        }
      ],
      "name": "getIDIndex",
      "outputs": [
        {
          "internalType": "int256",
          "name": "",
          "type": "int256"
        }
      ],
      "stateMutability": "view",
      "type": "function"
    },
    {
      "inputs": [],
      "name": "getIDSize",
      "outputs": [
        {
          "internalType": "uint256",
          "name": "",
          "type": "uint256"
        }
      ],
      "stateMutability": "view",
      "type": "function"
    },
    {
      "inputs": [
        {
          "internalType": "uint256",
          "name": "index",
          "type": "uint256"
        }
      ],
      "name": "getIDs",
      "outputs": [
        {
          "internalType": "uint256",
          "name": "",
          "type": "uint256"
        },
        {
          "internalType": "uint256",
          "name": "",
          "type": "uint256"
        }
      ],
      "stateMutability": "view",
      "type": "function"
    },
    {
      "inputs": [
        {
          "internalType": "uint256",
          "name": "index",
          "type": "uint256"
        }
      ],
      "name": "getIdentity",
      "outputs": [
        {
          "internalType": "uint256",
          "name": "id",
          "type": "uint256"
        },
        {
          "internalType": "uint256",
          "name": "id33",
          "type": "uint256"
        },
        {
          "internalType": "uint256",
          "name": "commitment",
          "type": "uint256"
        },
        {
          "internalType": "bool",
          "name": "active",
          "type": "bool"
        },
        {
          "internalType": "address",
          "name": "recordOwner",
          "type": "address"
        },
        {
          "internalType": "uint64",
          "name": "registeredAt",
          "type": "uint64"
        }
      ],
      "stateMutability": "view",
      "type": "function"
    },
    {
      "inputs": [
        {
          "internalType": "uint256",
          "name": "index",
          "type": "uint256"
        }
      ],
      "name": "getState",
      "outputs": [
        {
          "internalType": "bool",
          "name": "",
          "type": "bool"
        }
      ],
      "stateMutability": "view",
      "type": "function"
    },
    {
      "inputs": [],
      "name": "owner",
      "outputs": [
        {
          "internalType": "address",
          "name": "",
          "type": "address"
        }
      ],
      "stateMutability": "view",
      "type": "function"
    },
    {
      "inputs": [
        {
          "internalType": "uint256",
          "name": "index",
          "type": "uint256"
        }
      ],
      "name": "revokeID",
      "outputs": [],
      "stateMutability": "nonpayable",
      "type": "function"
    }
  ],
  "bytecode": "0x60a060405234801561001057600080fd5b50336080526080516109456100376000396000818161015c01526105dc01526109456000f3fe608060405234801561001057600080fd5b50600436106100935760003560e01c80638da5cb5b116100665780638da5cb5b1461014f5780639a80d1dd14610186578063a3657ed314610199578063ce3375d5146101ac578063e86cf917146101c157600080fd5b80632d3d11041461009857806344c9af28146100af5780636f1acd98146100d257806385e3f058146100fa575b600080fd5b6000545b6040519081526020015b60405180910390f35b6100c26100bd3660046107f1565b6101d7565b60405190151581526020016100a6565b6100e56100e03660046107f1565b610232565b604080519283526020830191909152016100a6565b61010d6101083660046107f1565b610292565b60408051968752602087019590955293850192909252151560608401526001600160a01b0316608083015267ffffffffffffffff1660a082015260c0016100a6565b6040516001600160a01b037f00000000000000000000000000000000000000000000000000000000000000001681526020016100a6565b61009c61019436600461080a565b610330565b61009c6101a736600461082c565b61039b565b6101bf6101ba3660046107f1565b610554565b005b6101c961066b565b6040516100a6929190610894565b6000805482106102025760405163112517f360e21b8152600481018390526024015b60405180910390fd5b60008281548110610215576102156108c2565b600091825260209091206003600490920201015460ff1692915050565b600080548190831061025a5760405163112517f360e21b8152600481018490526024016101f9565b600080848154811061026e5761026e6108c2565b90600052602060002090600402019050806000015481600101549250925050915091565b60008060008060008060008054905087106102c35760405163112517f360e21b8152600481018890526024016101f9565b60008088815481106102d7576102d76108c2565b60009182526020909120600490910201805460018201546002830154600390930154919b909a5091985060ff8116975061010081046001600160a01b03169650600160a81b900467ffffffffffffffff16945092505050565b6000805b60005481101561038e576000808281548110610352576103526108c2565b906000526020600020906004020190508481600001541480156103785750838160010154145b1561038557509050610395565b50600101610334565b5060001990505b92915050565b6000806103a88585610330565b126103d057604051630d21621b60e01b815260048101859052602481018490526044016101f9565b600080546040805160c081018252878152602080820188815282840188815260016060850181815233608087018181524267ffffffffffffffff90811660a08a01908152948b018c559a805296517f290decd9548b62a8d60345a988386fc84ba6bc95484008f6362f93160ef3e56360048b029081019190915594517f290decd9548b62a8d60345a988386fc84ba6bc95484008f6362f93160ef3e56486015592517f290decd9548b62a8d60345a988386fc84ba6bc95484008f6362f93160ef3e565850155517f290decd9548b62a8d60345a988386fc84ba6bc95484008f6362f93160ef3e5669093018054955191516001600160a81b0319909616931515610100600160a81b031916939093176101006001600160a01b03909216919091021767ffffffffffffffff60a81b1916600160a81b949097169390930295909517909455905190815290918591879184917fc1f56aa29cf69c731720437087f060684a7c45b1e66e36b4cf08c95ba3fc33e0910160405180910390a4949350505050565b60005481106105795760405163112517f360e21b8152600481018290526024016101f9565b600080828154811061058d5761058d6108c2565b906000526020600020906004020190508060030160019054906101000a90046001600160a01b03166001600160a01b0316336001600160a01b0316141580156105ff5750336001600160a01b037f00000000000000000000000000000000000000000000000000000000000000001614155b156106265760405163f2f808ed60e01b8152600481018390523360248201526044016101f9565b60038101805460ff1916905560405133815282907f7b0104bb092ce7f934da29f0c0dcb9fa85e71475aca2777258facd66dca4dc6e9060200160405180910390a25050565b6060806000805b6000548110156106c1576000818154811061068f5761068f6108c2565b600091825260209091206003600490920201015460ff16156106b9576106b66001836108d8565b91505b600101610672565b508067ffffffffffffffff8111156106db576106db6108f9565b604051908082528060200260200182016040528015610704578160200160208202803683370190505b5092508067ffffffffffffffff811115610720576107206108f9565b604051908082528060200260200182016040528015610749578160200160208202803683370190505b5091506000805b6000548110156107ea57600080828154811061076e5761076e6108c2565b60009182526020909120600490910201600381015490915060ff16156107e15780600001548684815181106107a5576107a56108c2565b60200260200101818152505080600101548584815181106107c8576107c86108c2565b60209081029190910101526107de6001846108d8565b92505b50600101610750565b5050509091565b60006020828403121561080357600080fd5b5035919050565b6000806040838503121561081d57600080fd5b50508035926020909101359150565b60008060006060848603121561084157600080fd5b505081359360208301359350604090920135919050565b60008151808452602080850194506020840160005b838110156108895781518752958201959082019060010161086d565b509495945050505050565b6040815260006108a76040830185610858565b82810360208401526108b98185610858565b95945050505050565b634e487b7160e01b600052603260045260246000fd5b8082018082111561039557634e487b7160e01b600052601160045260246000fd5b634e487b7160e01b600052604160045260246000fdfea26469706673582212202a6a3342350319d317352c68da8b790406f57a419cff7eb971327479afbaf02c64736f6c63430008180033",
  "linkReferences": {},
  "deployedLinkReferences": {}
}