{"contracts/U2SSORegistry.sol":{"U2SSORegistry":{"abi":[{"inputs":[],"stateMutability":"nonpayable","type":"constructor"},{"inputs":[{"internalType":"uint256","name":"id","type":"uint256"},{"internalType":"uint256","name":"id33","type":"uint256"}],"name":"IdentityAlreadyRegistered","type":"error"},{"inputs":[{"internalType":"uint256","name":"index","type":"uint256"}],"name":"IndexOutOfBounds","type":"error"},{"inputs":[{"internalType":"uint256","name":"index","type":"uint256"},{"internalType":"address","name":"caller","type":"address"}],"name":"NotIdentityOwner","type":"error"},{"anonymous":false,"inputs":[{"indexed":true,"internalType":"uint256","name":"index","type":"uint256"},{"indexed":true,"internalType":"uint256","name":"id","type":"uint256"},{"indexed":true,"internalType":"uint256","name":"id33","type":"uint256"},{"indexed":false,"internalType":"address","name":"owner","type":"address"}],"name":"IdentityRegistered","type":"event"},{"anonymous":false,"inputs":[{"indexed":true,"internalType":"uint256","name":"index","type":"uint256"},{"indexed":false,"internalType":"address","name":"revokedBy","type":"address"}],"name":"IdentityRevoked","type":"event"},{"inputs":[{"internalType":"uint256","name":"id","type":"uint256"},{"internalType":"uint256","name":"id33","type":"uint256"},{"internalType":"uint256","name":"commitment","type":"uint256"}],"name":"addID","outputs":[{"internalType":"uint256","name":"","type":"uint256"}],"stateMutability":"nonpayable","type":"function"},{"inputs":[],"name":"getActiveIDs","outputs":[{"internalType":"uint256[]","name":"ids","type":"uint256[]"},{"internalType":"uint256[]","name":"id33s","type":"uint256[]"}],"stateMutability":"view","type":"function"},{"inputs":[{"internalType":"uint256","name":"id","type":"uint256"},{"internalType":"uint256","name":"id33","type":"uint256"}],"name":"getIDIndex","outputs":[{"internalType":"int256","name":"","type":"int256"}],"stateMutability":"view","type":"function"},{"inputs":[],"name":"getIDSize","outputs":[{"internalType":"uint256","name":"","type":"uint256"}],"stateMutability":"view","type":"function"},{"inputs":[{"internalType":"uint256","name":"index","type":"uint256"}],"name":"getIDs","outputs":[{"internalType":"uint256","name":"","type":"uint256"},{"internalType":"uint256","name":"","type":"uint256"}],"stateMutability":"view","type":"function"},{"inputs":[{"internalType":"uint256","name":"index","type":"uint256"}],"name":"getIdentity","outputs":[{"internalType":"uint256","name":"id","type":"uint256"},{"internalType":"uint256","name":"id33","type":"uint256"},{"internalType":"uint256","name":"commitment","type":"uint256"},{"internalType":"bool","name":"active","type":"bool"},{"internalType":"address","name":"recordOwner","type":"address"},{"internalType":"uint64","name":"registeredAt","type":"uint64"}],"stateMutability":"view","type":"function"},{"inputs":[{"internalType":"uint256","name":"index","type":"uint256"}],"name":"getState","outputs":[{"internalType":"bool","name":"","type":"bool"}],"stateMutability":"view","type":"function"},{"inputs":[],"name":"owner","outputs":[{"internalType":"address","name":"","type":"address"}],"stateMutability":"view","type":"function"},{"inputs":[{"internalType":"uint256","name":"index","type":"uint256"}],"name":"revokeID","outputs":[],"stateMutability":"nonpayable","type":"function"}],"evm":{"bytecode":{"linkReferences":{},"object":"60a060405234801561001057600080fd5b50336080526080516109456100376000396000818161015c01526105dc01526109456000f3fe608060405234801561001057600080fd5b50600436106100935760003560e01c80638da5cb5b116100665780638da5cb5b1461014f5780639a80d1dd14610186578063a3657ed314610199578063ce3375d5146101ac578063e86cf917146101c157600080fd5b80632d3d11041461009857806344c9af28146100af5780636f1acd98146100d257806385e3f058146100fa575b600080fd5b6000545b6040519081526020015b60405180910390f35b6100c26100bd3660046107f1565b6101d7565b60405190151581526020016100a6565b6100e56100e03660046107f1565b610232565b604080519283526020830191909152016100a6565b61010d6101083660046107f1565b610292565b60408051968752602087019590955293850192909252151560608401526001600160a01b0316608083015267ffffffffffffffff1660a082015260c0016100a6565b6040516001600160a01b037f00000000000000000000000000000000000000000000000000000000000000001681526020016100a6565b61009c61019436600461080a565b610330565b61009c6101a736600461082c565b61039b565b6101bf6101ba3660046107f1565b610554565b005b6101c961066b565b6040516100a6929190610894565b6000805482106102025760405163112517f360e21b8152600481018390526024015b60405180910390fd5b60008281548110610215576102156108c2565b600091825260209091206003600490920201015460ff1692915050565b600080548190831061025a5760405163112517f360e21b8152600481018490526024016101f9565b600080848154811061026e5761026e6108c2565b90600052602060002090600402019050806000015481600101549250925050915091565b60008060008060008060008054905087106102c35760405163112517f360e21b8152600481018890526024016101f9565b60008088815481106102d7576102d76108c2565b60009182526020909120600490910201805460018201546002830154600390930154919b909a5091985060ff8116975061010081046001600160a01b03169650600160a81b900467ffffffffffffffff16945092505050565b6000805b60005481101561038e576000808281548110610352576103526108c2565b906000526020600020906004020190508481600001541480156103785750838160010154145b1561038557509050610395565b50600101610334565b5060001990505b92915050565b6000806103a88585610330565b126103d057604051630d21621b60e01b815260048101859052602481018490526044016101f9565b600080546040805160c081018252878152602080820188815282840188815260016060850181815233608087018181524267ffffffffffffffff90811660a08a01908152948b018c559a805296517f290decd9548b62a8d60345a988386fc84ba6bc95484008f6362f93160ef3e56360048b029081019190915594517f290decd9548b62a8d60345a988386fc84ba6bc95484008f6362f93160ef3e56486015592517f290decd9548b62a8d60345a988386fc84ba6bc95484008f6362f93160ef3e565850155517f290decd9548b62a8d60345a988386fc84ba6bc95484008f6362f93160ef3e5669093018054955191516001600160a81b0319909616931515610100600160a81b031916939093176101006001600160a01b03909216919091021767ffffffffffffffff60a81b1916600160a81b949097169390930295909517909455905190815290918591879184917fc1f56aa29cf69c731720437087f060684a7c45b1e66e36b4cf08c95ba3fc33e0910160405180910390a4949350505050565b60005481106105795760405163112517f360e21b8152600481018290526024016101f9565b600080828154811061058d5761058d6108c2565b906000526020600020906004020190508060030160019054906101000a90046001600160a01b03166001600160a01b0316336001600160a01b0316141580156105ff5750336001600160a01b037f00000000000000000000000000000000000000000000000000000000000000001614155b156106265760405163f2f808ed60e01b8152600481018390523360248201526044016101f9565b60038101805460ff1916905560405133815282907f7b0104bb092ce7f934da29f0c0dcb9fa85e71475aca2777258facd66dca4dc6e9060200160405180910390a25050565b6060806000805b6000548110156106c1576000818154811061068f5761068f6108c2565b600091825260209091206003600490920201015460ff16156106b9576106b66001836108d8565b91505b600101610672565b508067ffffffffffffffff8111156106db576106db6108f9565b604051908082528060200260200182016040528015610704578160200160208202803683370190505b5092508067ffffffffffffffff811115610720576107206108f9565b604051908082528060200260200182016040528015610749578160200160208202803683370190505b5091506000805b6000548110156107ea57600080828154811061076e5761076e6108c2565b60009182526020909120600490910201600381015490915060ff16156107e15780600001548684815181106107a5576107a56108c2565b60200260200101818152505080600101548584815181106107c8576107c86108c2565b60209081029190910101526107de6001846108d8565b92505b50600101610750565b5050509091565b60006020828403121561080357600080fd5b5035919050565b6000806040838503121561081d57600080fd5b50508035926020909101359150565b60008060006060848603121561084157600080fd5b505081359360208301359350604090920135919050565b60008151808452602080850194506020840160005b838110156108895781518752958201959082019060010161086d565b509495945050505050565b6040815260006108a76040830185610858565b82810360208401526108b98185610858565b95945050505050565b634e487b7160e01b600052603260045260246000fd5b8082018082111561039557634e487b7160e01b600052601160045260246000fd5b634e487b7160e01b600052604160045260246000fdfea26469706673582212202a6a3342350319d317352c68da8b790406f57a419cff7eb971327479afbaf02c64736f6c63430008180033","opcodes":"PUSH1 0xA0 PUSH1 0x40 MSTORE CALLVALUE DUP1 ISZERO PUSH2 0x10 JUMPI PUSH1 0x0 DUP1 REVERT JUMPDEST POP CALLER PUSH1 0x80 MSTORE PUSH1 0x80 MLOAD PUSH2 0x945 PUSH2 0x37 PUSH1 0x0 CODECOPY PUSH1 0x0 DUP2 DUP2 PUSH2 0x15C ADD MSTORE PUSH2 0x5DC ADD MSTORE PUSH2 0x945 PUSH1 0x0 RETURN INVALID PUSH1 0x80 PUSH1 0x40 MSTORE CALLVALUE DUP1 ISZERO PUSH2 0x10 JUMPI PUSH1 0x0 DUP1 REVERT JUMPDEST POP PUSH1 0x4 CALLDATASIZE LT PUSH2 0x93 JUMPI PUSH1 0x0 CALLDATALOAD PUSH1 0xE0 SHR DUP1 PUSH4 0x8DA5CB5B GT PUSH2 0x66 JUMPI DUP1 PUSH4 0x8DA5CB5B EQ PUSH2 0x14F JUMPI DUP1 PUSH4 0x9A80D1DD EQ PUSH2 0x186 JUMPI DUP1 PUSH4 0xA3657ED3 EQ PUSH2 0x199 JUMPI DUP1 PUSH4 0xCE3375D5 EQ PUSH2 0x1AC JUMPI DUP1 PUSH4 0xE86CF917 EQ PUSH2 0x1C1 JUMPI PUSH1 0x0 DUP1 REVERT JUMPDEST DUP1 PUSH4 0x2D3D1104 EQ PUSH2 0x98 JUMPI DUP1 PUSH4 0x44C9AF28 EQ PUSH2 0xAF JUMPI DUP1 PUSH4 0x6F1ACD98 EQ PUSH2 0xD2 JUMPI DUP1 PUSH4 0x85E3F058 EQ PUSH2 0xFA JUMPI JUMPDEST PUSH1 0x0 DUP1 REVERT JUMPDEST PUSH1 0x0 SLOAD JUMPDEST PUSH1 0x40 MLOAD SWAP1 DUP2 MSTORE PUSH1 0x20 ADD JUMPDEST PUSH1 0x40 MLOAD DUP1 SWAP2 SUB SWAP1 RETURN JUMPDEST PUSH2 0xC2 PUSH2 0xBD CALLDATASIZE PUSH1 0x4 PUSH2 0x7F1 JUMP JUMPDEST PUSH2 0x1D7 JUMP JUMPDEST PUSH1 0x40 MLOAD SWAP1 ISZERO ISZERO DUP2 MSTORE PUSH1 0x20 ADD PUSH2 0xA6 JUMP JUMPDEST PUSH2 0xE5 PUSH2 0xE0 CALLDATASIZE PUSH1 0x4 PUSH2 0x7F1 JUMP JUMPDEST PUSH2 0x232 JUMP JUMPDEST PUSH1 0x40 DUP1 MLOAD SWAP3 DUP4 MSTORE PUSH1 0x20 DUP4 ADD SWAP2 SWAP1 SWAP2 MSTORE ADD PUSH2 0xA6 JUMP JUMPDEST PUSH2 0x10D PUSH2 0x108 CALLDATASIZE PUSH1 0x4 PUSH2 0x7F1 JUMP JUMPDEST PUSH2 0x292 JUMP JUMPDEST PUSH1 0x40 DUP1 MLOAD SWAP7 DUP8 MSTORE PUSH1 0x20 DUP8 ADD SWAP6 SWAP1 SWAP6 MSTORE SWAP4 DUP6 ADD SWAP3 SWAP1 SWAP3 MSTORE ISZERO ISZERO PUSH1 0x60 DUP5 ADD MSTORE PUSH1 0x1 PUSH1 0x1 PUSH1 0xA0 SHL SUB AND PUSH1 0x80 DUP4 ADD MSTORE PUSH8 0xFFFFFFFFFFFFFFFF AND PUSH1 0xA0 DUP3 ADD MSTORE PUSH1 0xC0 ADD PUSH2 0xA6 JUMP JUMPDEST PUSH1 0x40 MLOAD PUSH1 0x1 PUSH1 0x1 PUSH1 0xA0 SHL SUB PUSH32 0x0 AND DUP2 MSTORE PUSH1 0x20 ADD PUSH2 0xA6 JUMP JUMPDEST PUSH2 0x9C PUSH2 0x194 CALLDATASIZE PUSH1 0x4 PUSH2 0x80A JUMP JUMPDEST PUSH2 0x330 JUMP JUMPDEST PUSH2 0x9C PUSH2 0x1A7 CALLDATASIZE PUSH1 0x4 PUSH2 0x82C JUMP JUMPDEST PUSH2 0x39B JUMP JUMPDEST PUSH2 0x1BF PUSH2 0x1BA CALLDATASIZE PUSH1 0x4 PUSH2 0x7F1 JUMP JUMPDEST PUSH2 0x554 JUMP JUMPDEST STOP JUMPDEST PUSH2 0x1C9 PUSH2 0x66B JUMP JUMPDEST PUSH1 0x40 MLOAD PUSH2 0xA6 SWAP3 SWAP2 SWAP1 PUSH2 0x894 JUMP JUMPDEST PUSH1 0x0 DUP1 SLOAD DUP3 LT PUSH2 0x202 JUMPI PUSH1 0x40 MLOAD PUSH4 0x112517F3 PUSH1 0xE2 SHL DUP2 MSTORE PUSH1 0x4 DUP2 ADD DUP4 SWAP1 MSTORE PUSH1 0x24 ADD JUMPDEST PUSH1 0x40 MLOAD DUP1 SWAP2 SUB SWAP1 REVERT JUMPDEST PUSH1 0x0 DUP3 DUP2 SLOAD DUP2 LT PUSH2 0x215 JUMPI PUSH2 0x215 PUSH2 0x8C2 JUMP JUMPDEST PUSH1 0x0 SWAP2 DUP3 MSTORE PUSH1 0x20 SWAP1 SWAP2 KECCAK256 PUSH1 0x3 PUSH1 0x4 SWAP1 SWAP3 MUL ADD ADD SLOAD PUSH1 0xFF AND SWAP3 SWAP2 POP POP JUMP JUMPDEST PUSH1 0x0 DUP1 SLOAD DUP2 SWAP1 DUP4 LT PUSH2 0x25A JUMPI PUSH1 0x40 MLOAD PUSH4 0x112517F3 PUSH1 0xE2 SHL DUP2 MSTORE PUSH1 0x4 DUP2 ADD DUP5 SWAP1 MSTORE PUSH1 0x24 ADD PUSH2 0x1F9 JUMP JUMPDEST PUSH1 0x0 DUP1 DUP5 DUP2 SLOAD DUP2 LT PUSH2 0x26E JUMPI PUSH2 0x26E PUSH2 0x8C2 JUMP JUMPDEST SWAP1 PUSH1 0x0 MSTORE PUSH1 0x20 PUSH1 0x0 KECCAK256 SWAP1 PUSH1 0x4 MUL ADD SWAP1 POP DUP1 PUSH1 0x0 ADD SLOAD DUP2 PUSH1 0x1 ADD SLOAD SWAP3 POP SWAP3 POP POP SWAP2 POP SWAP2 JUMP JUMPDEST PUSH1 0x0 DUP1 PUSH1 0x0 DUP1 PUSH1 0x0 DUP1 PUSH1 0x0 DUP1 SLOAD SWAP1 POP DUP8 LT PUSH2 0x2C3 JUMPI PUSH1 0x40 MLOAD PUSH4 0x112517F3 PUSH1 0xE2 SHL DUP2 MSTORE PUSH1 0x4 DUP2 ADD DUP9 SWAP1 MSTORE PUSH1 0x24 ADD PUSH2 0x1F9 JUMP JUMPDEST PUSH1 0x0 DUP1 DUP9 DUP2 SLOAD DUP2 LT PUSH2 0x2D7 JUMPI PUSH2 0x2D7 PUSH2 0x8C2 JUMP JUMPDEST PUSH1 0x0 SWAP2 DUP3 MSTORE PUSH1 0x20 SWAP1 SWAP2 KECCAK256 PUSH1 0x4 SWAP1 SWAP2 MUL ADD DUP1 SLOAD PUSH1 0x1 DUP3 ADD SLOAD PUSH1 0x2 DUP4 ADD SLOAD PUSH1 0x3 SWAP1 SWAP4 ADD SLOAD SWAP2 SWAP12 SWAP1 SWAP11 POP SWAP2 SWAP9 POP PUSH1 0xFF DUP2 AND SWAP8 POP PUSH2 0x100 DUP2 DIV PUSH1 0x1 PUSH1 0x1 PUSH1 0xA0 SHL SUB AND SWAP7 POP PUSH1 0x1 PUSH1 0xA8 SHL SWAP1 DIV PUSH8 0xFFFFFFFFFFFFFFFF AND SWAP5 POP SWAP3 POP POP POP JUMP JUMPDEST PUSH1 0x0 DUP1 JUMPDEST PUSH1 0x0 SLOAD DUP2 LT ISZERO PUSH2 0x38E JUMPI PUSH1 0x0 DUP1 DUP3 DUP2 SLOAD DUP2 LT PUSH2 0x352 JUMPI PUSH2 0x352 PUSH2 0x8C2 JUMP JUMPDEST SWAP1 PUSH1 0x0 MSTORE PUSH1 0x20 PUSH1 0x0 KECCAK256 SWAP1 PUSH1 0x4 MUL ADD SWAP1 POP DUP5 DUP2 PUSH1 0x0 ADD SLOAD EQ DUP1 ISZERO PUSH2 0x378 JUMPI POP DUP4 DUP2 PUSH1 0x1 ADD SLOAD EQ JUMPDEST ISZERO PUSH2 0x385 JUMPI POP SWAP1 POP PUSH2 0x395 JUMP JUMPDEST POP PUSH1 0x1 ADD PUSH2 0x334 JUMP JUMPDEST POP PUSH1 0x0 NOT SWAP1 POP JUMPDEST SWAP3 SWAP2 POP POP JUMP JUMPDEST PUSH1 0x0 DUP1 PUSH2 0x3A8 DUP6 DUP6 PUSH2 0x330 JUMP JUMPDEST SLT PUSH2 0x3D0 JUMPI PUSH1 0x40 MLOAD PUSH4 0xD21621B PUSH1 0xE0 SHL DUP2 MSTORE PUSH1 0x4 DUP2 ADD DUP6 SWAP1 MSTORE PUSH1 0x24 DUP2 ADD DUP5 SWAP1 MSTORE PUSH1 0x44 ADD PUSH2 0x1F9 JUMP JUMPDEST PUSH1 0x0 DUP1 SLOAD PUSH1 0x40 DUP1 MLOAD PUSH1 0xC0 DUP2 ADD DUP3 MSTORE DUP8 DUP2 MSTORE PUSH1 0x20 DUP1 DUP3 ADD DUP9 DUP2 MSTORE DUP3 DUP5 ADD DUP9 DUP2 MSTORE PUSH1 0x1 PUSH1 0x60 DUP6 ADD DUP2 DUP2 MSTORE CALLER PUSH1 0x80 DUP8 ADD DUP2 DUP2 MSTORE TIMESTAMP PUSH8 0xFFFFFFFFFFFFFFFF SWAP1 DUP2 AND PUSH1 0xA0 DUP11 ADD SWAP1 DUP2 MSTORE SWAP5 DUP12 ADD DUP13 SSTORE SWAP11 DUP1 MSTORE SWAP7 MLOAD PUSH32 0x290DECD9548B62A8D60345A988386FC84BA6BC95484008F6362F93160EF3E563 PUSH1 0x4 DUP12 MUL SWAP1 DUP2 ADD SWAP2 SWAP1 SWAP2 SSTORE SWAP5 MLOAD PUSH32 0x290DECD9548B62A8D60345A988386FC84BA6BC95484008F6362F93160EF3E564 DUP7 ADD SSTORE SWAP3 MLOAD PUSH32 0x290DECD9548B62A8D60345A988386FC84BA6BC95484008F6362F93160EF3E565 DUP6 ADD SSTORE MLOAD PUSH32 0x290DECD9548B62A8D60345A988386FC84BA6BC95484008F6362F93160EF3E566 SWAP1 SWAP4 ADD DUP1 SLOAD SWAP6 MLOAD SWAP2 MLOAD PUSH1 0x1 PUSH1 0x1 PUSH1 0xA8 SHL SUB NOT SWAP1 SWAP7 AND SWAP4 ISZERO ISZERO PUSH2 0x100 PUSH1 0x1 PUSH1 0xA8 SHL SUB NOT AND SWAP4 SWAP1 SWAP4 OR PUSH2 0x100 PUSH1 0x1 PUSH1 0x1 PUSH1 0xA0 SHL SUB SWAP1 SWAP3 AND SWAP2 SWAP1 SWAP2 MUL OR PUSH8 0xFFFFFFFFFFFFFFFF PUSH1 0xA8 SHL NOT AND PUSH1 0x1 PUSH1 0xA8 SHL SWAP5 SWAP1 SWAP8 AND SWAP4 SWAP1 SWAP4 MUL SWAP6 SWAP1 SWAP6 OR SWAP1 SWAP5 SSTORE SWAP1 MLOAD SWAP1 DUP2 MSTORE SWAP1 SWAP2 DUP6 SWAP2 DUP8 SWAP2 DUP5 SWAP2 PUSH32 0xC1F56AA29CF69C731720437087F060684A7C45B1E66E36B4CF08C95BA3FC33E0 SWAP2 ADD PUSH1 0x40 MLOAD DUP1 SWAP2 SUB SWAP1 LOG4 SWAP5 SWAP4 POP POP POP POP JUMP JUMPDEST PUSH1 0x0 SLOAD DUP2 LT PUSH2 0x579 JUMPI PUSH1 0x40 MLOAD PUSH4 0x112517F3 PUSH1 0xE2 SHL DUP2 MSTORE PUSH1 0x4 DUP2 ADD DUP3 SWAP1 MSTORE PUSH1 0x24 ADD PUSH2 0x1F9 JUMP JUMPDEST PUSH1 0x0 DUP1 DUP3 DUP2 SLOAD DUP2 LT PUSH2 0x58D JUMPI PUSH2 0x58D PUSH2 0x8C2 JUMP JUMPDEST SWAP1 PUSH1 0x0 MSTORE PUSH1 0x20 PUSH1 0x0 KECCAK256 SWAP1 PUSH1 0x4 MUL ADD SWAP1 POP DUP1 PUSH1 0x3 ADD PUSH1 0x1 SWAP1 SLOAD SWAP1 PUSH2 0x100 EXP SWAP1 DIV PUSH1 0x1 PUSH1 0x1 PUSH1 0xA0 SHL SUB AND PUSH1 0x1 PUSH1 0x1 PUSH1 0xA0 SHL SUB AND CALLER PUSH1 0x1 PUSH1 0x1 PUSH1 0xA0 SHL SUB AND EQ ISZERO DUP1 ISZERO PUSH2 0x5FF JUMPI POP CALLER PUSH1 0x1 PUSH1 0x1 PUSH1 0xA0 SHL SUB PUSH32 0x0 AND EQ ISZERO JUMPDEST ISZERO PUSH2 0x626 JUMPI PUSH1 0x40 MLOAD PUSH4 0xF2F808ED PUSH1 0xE0 SHL DUP2 MSTORE PUSH1 0x4 DUP2 ADD DUP4 SWAP1 MSTORE CALLER PUSH1 0x24 DUP3 ADD MSTORE PUSH1 0x44 ADD PUSH2 0x1F9 JUMP JUMPDEST PUSH1 0x3 DUP2 ADD DUP1 SLOAD PUSH1 0xFF NOT AND SWAP1 SSTORE PUSH1 0x40 MLOAD CALLER DUP2 MSTORE DUP3 SWAP1 PUSH32 0x7B0104BB092CE7F934DA29F0C0DCB9FA85E71475ACA2777258FACD66DCA4DC6E SWAP1 PUSH1 0x20 ADD PUSH1 0x40 MLOAD DUP1 SWAP2 SUB SWAP1 LOG2 POP POP JUMP JUMPDEST PUSH1 0x60 DUP1 PUSH1 0x0 DUP1 JUMPDEST PUSH1 0x0 SLOAD DUP2 LT ISZERO PUSH2 0x6C1 JUMPI PUSH1 0x0 DUP2 DUP2 SLOAD DUP2 LT PUSH2 0x68F JUMPI PUSH2 0x68F PUSH2 0x8C2 JUMP JUMPDEST PUSH1 0x0 SWAP2 DUP3 MSTORE PUSH1 0x20 SWAP1 SWAP2 KECCAK256 PUSH1 0x3 PUSH1 0x4 SWAP1 SWAP3 MUL ADD ADD SLOAD PUSH1 0xFF AND ISZERO PUSH2 0x6B9 JUMPI PUSH2 0x6B6 PUSH1 0x1 DUP4 PUSH2 0x8D8 JUMP JUMPDEST SWAP2 POP JUMPDEST PUSH1 0x1 ADD PUSH2 0x672 JUMP JUMPDEST POP DUP1 PUSH8 0xFFFFFFFFFFFFFFFF DUP2 GT ISZERO PUSH2 0x6DB JUMPI PUSH2 0x6DB PUSH2 0x8F9 JUMP JUMPDEST PUSH1 0x40 MLOAD SWAP1 DUP1 DUP3 MSTORE DUP1 PUSH1 0x20 MUL PUSH1 0x20 ADD DUP3 ADD PUSH1 0x40 MSTORE DUP1 ISZERO PUSH2 0x704 JUMPI DUP2 PUSH1 0x20 ADD PUSH1 0x20 DUP3 MUL DUP1 CALLDATASIZE DUP4 CALLDATACOPY ADD SWAP1 POP JUMPDEST POP SWAP3 POP DUP1 PUSH8 0xFFFFFFFFFFFFFFFF DUP2 GT ISZERO PUSH2 0x720 JUMPI PUSH2 0x720 PUSH2 0x8F9 JUMP JUMPDEST PUSH1 0x40 MLOAD SWAP1 DUP1 DUP3 MSTORE DUP1 PUSH1 0x20 MUL PUSH1 0x20 ADD DUP3 ADD PUSH1 0x40 MSTORE DUP1 ISZERO PUSH2 0x749 JUMPI DUP2 PUSH1 0x20 ADD PUSH1 0x20 DUP3 MUL DUP1 CALLDATASIZE DUP4 CALLDATACOPY ADD SWAP1 POP JUMPDEST POP SWAP2 POP PUSH1 0x0 DUP1 JUMPDEST PUSH1 0x0 SLOAD DUP2 LT ISZERO PUSH2 0x7EA JUMPI PUSH1 0x0 DUP1 DUP3 DUP2 SLOAD DUP2 LT PUSH2 0x76E JUMPI PUSH2 0x76E PUSH2 0x8C2 JUMP JUMPDEST PUSH1 0x0 SWAP2 DUP3 MSTORE PUSH1 0x20 SWAP1 SWAP2 KECCAK256 PUSH1 0x4 SWAP1 SWAP2 MUL ADD PUSH1 0x3 DUP2 ADD SLOAD SWAP1 SWAP2 POP PUSH1 0xFF AND ISZERO PUSH2 0x7E1 JUMPI DUP1 PUSH1 0x0 ADD SLOAD DUP7 DUP5 DUP2 MLOAD DUP2 LT PUSH2 0x7A5 JUMPI PUSH2 0x7A5 PUSH2 0x8C2 JUMP JUMPDEST PUSH1 0x20 MUL PUSH1 0x20 ADD ADD DUP2 DUP2 MSTORE POP POP DUP1 PUSH1 0x1 ADD SLOAD DUP6 DUP5 DUP2 MLOAD DUP2 LT PUSH2 0x7C8 JUMPI PUSH2 0x7C8 PUSH2 0x8C2 JUMP JUMPDEST PUSH1 0x20 SWAP1 DUP2 MUL SWAP2 SWAP1 SWAP2 ADD ADD MSTORE PUSH2 0x7DE PUSH1 0x1 DUP5 PUSH2 0x8D8 JUMP JUMPDEST SWAP3 POP JUMPDEST POP PUSH1 0x1 ADD PUSH2 0x750 JUMP JUMPDEST POP POP POP SWAP1 SWAP2 JUMP JUMPDEST PUSH1 0x0 PUSH1 0x20 DUP3 DUP5 SUB SLT ISZERO PUSH2 0x803 JUMPI PUSH1 0x0 DUP1 REVERT JUMPDEST POP CALLDATALOAD SWAP2 SWAP1 POP JUMP JUMPDEST PUSH1 0x0 DUP1 PUSH1 0x40 DUP4 DUP6 SUB SLT ISZERO PUSH2 0x81D JUMPI PUSH1 0x0 DUP1 REVERT JUMPDEST POP POP DUP1 CALLDATALOAD SWAP3 PUSH1 0x20 SWAP1 SWAP2 ADD CALLDATALOAD SWAP2 POP JUMP JUMPDEST PUSH1 0x0 DUP1 PUSH1 0x0 PUSH1 0x60 DUP5 DUP7 SUB SLT ISZERO PUSH2 0x841 JUMPI PUSH1 0x0 DUP1 REVERT JUMPDEST POP POP DUP2 CALLDATALOAD SWAP4 PUSH1 0x20 DUP4 ADD CALLDATALOAD SWAP4 POP PUSH1 0x40 SWAP1 SWAP3 ADD CALLDATALOAD SWAP2 SWAP1 POP JUMP JUMPDEST PUSH1 0x0 DUP2 MLOAD DUP1 DUP5 MSTORE PUSH1 0x20 DUP1 DUP6 ADD SWAP5 POP PUSH1 0x20 DUP5 ADD PUSH1 0x0 JUMPDEST DUP4 DUP2 LT ISZERO PUSH2 0x889 JUMPI DUP2 MLOAD DUP8 MSTORE SWAP6 DUP3 ADD SWAP6 SWAP1 DUP3 ADD SWAP1 PUSH1 0x1 ADD PUSH2 0x86D JUMP JUMPDEST POP SWAP5 SWAP6 SWAP5 POP POP POP POP POP JUMP JUMPDEST PUSH1 0x40 DUP2 MSTORE PUSH1 0x0 PUSH2 0x8A7 PUSH1 0x40 DUP4 ADD DUP6 PUSH2 0x858 JUMP JUMPDEST DUP3 DUP2 SUB PUSH1 0x20 DUP5 ADD MSTORE PUSH2 0x8B9 DUP2 DUP6 PUSH2 0x858 JUMP JUMPDEST SWAP6 SWAP5 POP POP POP POP POP JUMP JUMPDEST PUSH4 0x4E487B71 PUSH1 0xE0 SHL PUSH1 0x0 MSTORE PUSH1 0x32 PUSH1 0x4 MSTORE PUSH1 0x24 PUSH1 0x0 REVERT JUMPDEST DUP1 DUP3 ADD DUP1 DUP3 GT ISZERO PUSH2 0x395 JUMPI PUSH4 0x4E487B71 PUSH1 0xE0 SHL PUSH1 0x0 MSTORE PUSH1 0x11 PUSH1 0x4 MSTORE PUSH1 0x24 PUSH1 0x0 REVERT JUMPDEST PUSH4 0x4E487B71 PUSH1 0xE0 SHL PUSH1 0x0 MSTORE PUSH1 0x41 PUSH1 0x4 MSTORE PUSH1 0x24 PUSH1 0x0 REVERT INVALID LOG2 PUSH5 0x6970667358 0x22 SLT KECCAK256 0x2A PUSH11 0x3342350319D317352C68DA DUP12 PUSH26 0x406F57A419CFF7EB971327479AFBAF02C64736F6C6343000818 STOP CALLER "},"methodIdentifiers":{"addID(uint256,uint256,uint256)":"a3657ed3","getActiveIDs()":"e86cf917","getIDIndex(uint256,uint256)":"9a80d1dd","getIDSize()":"2d3d1104","getIDs(uint256)":"6f1acd98","getIdentity(uint256)":"85e3f058","getState(uint256)":"44c9af28","owner()":"8da5cb5b","revokeID(uint256)":"ce3375d5"}}}}}