{"contracts/U2SSORegistry.sol":{"U2SSORegistry":{"abi":[{"inputs":[],"stateMutability":"nonpayable","type":"constructor"},{"inputs":[{"internalType":"uint256","name":"id","type":"uint256"},{"internalType":"uint256","name":"id33","type":"uint256"}],"name":"IdentityAlreadyRegistered","type":"error"},{"inputs":[{"internalType":"uint256","name":"index","type":"uint256"}],"name":"IndexOutOfBounds","type":"error"},{"inputs":[{"internalType":"uint256","name":"index","type":"uint256"},{"internalType":"address","name":"caller","type":"address"}],"name":"NotIdentityOwner","type":"error"},{"anonymous":false,"inputs":[{"indexed":true,"internalType":"uint256","name":"index","type":"uint256"},{"indexed":true,"internalType":"uint256","name":"id","type":"uint256"},{"indexed":true,"internalType":"uint256","name":"id33","type":"uint256"},{"indexed":false,"internalType":"address","name":"owner","type":"address"}],"name":"IdentityRegistered","type":"event"},{"anonymous":false,"inputs":[{"indexed":true,"internalType":"uint256","name":"index","type":"uint256"},{"indexed":false,"internalType":"address","name":"revokedBy","type":"address"}],"name":"IdentityRevoked","type":"event"},{"inputs":[{"internalType":"uint256","name":"id","type":"uint256"},{"internalType":"uint256","name":"id33","type":"uint256"}],"name":"addID","outputs":[{"internalType":"uint256","name":"","type":"uint256"}],"stateMutability":"nonpayable","type":"function"},{"inputs":[],"name":"getActiveIDs","outputs":[{"internalType":"uint256[]","name":"ids","type":"uint256[]"},{"internalType":"uint256[]","name":"id33s","type":"uint256[]"}],"stateMutability":"view","type":"function"},{"inputs":[{"internalType":"uint256","name":"id","type":"uint256"},{"internalType":"uint256","name":"id33","type":"uint256"}],"name":"getIDIndex","outputs":[{"internalType":"int256","name":"","type":"int256"}],"stateMutability":"view","type":"function"},{"inputs":[],"name":"getIDSize","outputs":[{"internalType":"uint256","name":"","type":"uint256"}],"stateMutability":"view","type":"function"},{"inputs":[{"internalType":"uint256","name":"index","type":"uint256"}],"name":"getIDs","outputs":[{"internalType":"uint256","name":"","type":"uint256"},{"internalType":"uint256","name":"","type":"uint256"}],"stateMutability":"view","type":"function"},{"inputs":[{"internalType":"uint256","name":"index","type":"uint256"}],"name":"getIdentity","outputs":[{"internalType":"uint256","name":"id","type":"uint256"},{"internalType":"uint256","name":"id33","type":"uint256"},{"internalType":"bool","name":"active","type":"bool"},{"internalType":"address","name":"recordOwner","type":"address"},{"internalType":"uint64","name":"registeredAt","type":"uint64"}],"stateMutability":"view","type":"function"},{"inputs":[{"internalType":"uint256","name":"index","type":"uint256"}],"name":"getState","outputs":[{"internalType":"bool","name":"","type":"bool"}],"stateMutability":"view","type":"function"},{"inputs":[],"name":"owner","outputs":[{"internalType":"address","name":"","type":"address"}],"stateMutability":"view","type":"function"},{"inputs":[{"internalType":"uint256","name":"index","type":"uint256"}],"name":"revokeID","outputs":[],"stateMutability":"nonpayable","type":"function"}],"evm":{"bytecode":{"linkReferences":{},"object":"60a060405234801561001057600080fd5b50336080526080516108f06100376000396000818161016d01526105b301526108f06000f3fe608060405234801561001057600080fd5b50600436106100935760003560e01c806385e3f0581161006657806385e3f0581461010d5780638da5cb5b146101605780639a80d1dd14610197578063ce3375d5146101aa578063e86cf917146101bf57600080fd5b80632d3d11041461009857806344c9af28146100af5780636f1acd98146100d257806372b8dee1146100fa575b600080fd5b6000545b6040519081526020015b60405180910390f35b6100c26100bd3660046107c8565b6101d5565b60405190151581526020016100a6565b6100e56100e03660046107c8565b610230565b604080519283526020830191909152016100a6565b61009c6101083660046107e1565b610290565b61012061011b3660046107c8565b61042e565b604080519586526020860194909452911515928401929092526001600160a01b03909116606083015267ffffffffffffffff16608082015260a0016100a6565b6040516001600160a01b037f00000000000000000000000000000000000000000000000000000000000000001681526020016100a6565b61009c6101a53660046107e1565b6104c2565b6101bd6101b83660046107c8565b61052b565b005b6101c7610642565b6040516100a692919061083f565b6000805482106102005760405163112517f360e21b8152600481018390526024015b60405180910390fd5b600082815481106102135761021361086d565b600091825260209091206002600390920201015460ff1692915050565b60008054819083106102585760405163112517f360e21b8152600481018490526024016101f7565b600080848154811061026c5761026c61086d565b90600052602060002090600302019050806000015481600101549250925050915091565b60008061029d84846104c2565b126102c557604051630d21621b60e01b815260048101849052602481018390526044016101f7565b600080546040805160a081018252868152602081018681526001828401818152336060850181815267ffffffffffffffff428116608088019081529489018a559880529451600388027f290decd9548b62a8d60345a988386fc84ba6bc95484008f6362f93160ef3e56381019190915593517f290decd9548b62a8d60345a988386fc84ba6bc95484008f6362f93160ef3e56485015590517f290decd9548b62a8d60345a988386fc84ba6bc95484008f6362f93160ef3e565909301805494519251909716600160a81b0267ffffffffffffffff60a81b196001600160a01b039390931661010002610100600160a81b0319941515949094166001600160a81b0319909516949094179290921716919091179093555190918491869184917fc1f56aa29cf69c731720437087f060684a7c45b1e66e36b4cf08c95ba3fc33e09161041d916001600160a01b0391909116815260200190565b60405180910390a490505b92915050565b60008060008060008080549050861061045d5760405163112517f360e21b8152600481018790526024016101f7565b60008087815481106104715761047161086d565b6000918252602090912060039091020180546001820154600290920154909991985060ff8116975061010081046001600160a01b03169650600160a81b900467ffffffffffffffff16945092505050565b6000805b6000548110156105205760008082815481106104e4576104e461086d565b9060005260206000209060030201905084816000015414801561050a5750838160010154145b1561051757509050610428565b506001016104c6565b506000199392505050565b60005481106105505760405163112517f360e21b8152600481018290526024016101f7565b60008082815481106105645761056461086d565b906000526020600020906003020190508060020160019054906101000a90046001600160a01b03166001600160a01b0316336001600160a01b0316141580156105d65750336001600160a01b037f00000000000000000000000000000000000000000000000000000000000000001614155b156105fd5760405163f2f808ed60e01b8152600481018390523360248201526044016101f7565b60028101805460ff1916905560405133815282907f7b0104bb092ce7f934da29f0c0dcb9fa85e71475aca2777258facd66dca4dc6e9060200160405180910390a25050565b6060806000805b60005481101561069857600081815481106106665761066661086d565b600091825260209091206002600390920201015460ff16156106905761068d600183610883565b91505b600101610649565b508067ffffffffffffffff8111156106b2576106b26108a4565b6040519080825280602002602001820160405280156106db578160200160208202803683370190505b5092508067ffffffffffffffff8111156106f7576106f76108a4565b604051908082528060200260200182016040528015610720578160200160208202803683370190505b5091506000805b6000548110156107c15760008082815481106107455761074561086d565b60009182526020909120600390910201600281015490915060ff16156107b857806000015486848151811061077c5761077c61086d565b602002602001018181525050806001015485848151811061079f5761079f61086d565b60209081029190910101526107b5600184610883565b92505b50600101610727565b5050509091565b6000602082840312156107da57600080fd5b5035919050565b600080604083850312156107f457600080fd5b50508035926020909101359150565b60008151808452602080850194506020840160005b8381101561083457815187529582019590820190600101610818565b509495945050505050565b6040815260006108526040830185610803565b82810360208401526108648185610803565b95945050505050565b634e487b7160e01b600052603260045260246000fd5b8082018082111561042857634e487b7160e01b600052601160045260246000fd5b634e487b7160e01b600052604160045260246000fdfea2646970667358221220d95f9419f5c6bbfa4b5ecaf054cf8c030d0f2f0c38463abeba752ce454c15b6b64736f6c63430008180033","opcodes":"PUSH1 0xA0 PUSH1 0x40 MSTORE CALLVALUE DUP1 ISZERO PUSH2 0x10 JUMPI PUSH1 0x0 DUP1 REVERT JUMPDEST POP CALLER PUSH1 0x80 MSTORE PUSH1 0x80 MLOAD PUSH2 0x8F0 PUSH2 0x37 PUSH1 0x0 CODECOPY PUSH1 0x0 DUP2 DUP2 PUSH2 0x16D ADD MSTORE PUSH2 0x5B3 ADD MSTORE PUSH2 0x8F0 PUSH1 0x0 RETURN INVALID PUSH1 0x80 PUSH1 0x40 MSTORE CALLVALUE DUP1 ISZERO PUSH2 0x10 JUMPI PUSH1 0x0 DUP1 REVERT JUMPDEST POP PUSH1 0x4 CALLDATASIZE LT PUSH2 0x93 JUMPI PUSH1 0x0 CALLDATALOAD PUSH1 0xE0 SHR DUP1 PUSH4 0x85E3F058 GT PUSH2 0x66 JUMPI DUP1 PUSH4 0x85E3F058 EQ PUSH2 0x10D JUMPI DUP1 PUSH4 0x8DA5CB5B EQ PUSH2 0x160 JUMPI DUP1 PUSH4 0x9A80D1DD EQ PUSH2 0x197 JUMPI DUP1 PUSH4 0xCE3375D5 EQ PUSH2 0x1AA JUMPI DUP1 PUSH4 0xE86CF917 EQ PUSH2 0x1BF JUMPI PUSH1 0x0 DUP1 REVERT JUMPDEST DUP1 PUSH4 0x2D3D1104 EQ PUSH2 0x98 JUMPI DUP1 PUSH4 0x44C9AF28 EQ PUSH2 0xAF JUMPI DUP1 PUSH4 0x6F1ACD98 EQ PUSH2 0xD2 JUMPI DUP1 PUSH4 0x72B8DEE1 EQ PUSH2 0xFA JUMPI JUMPDEST PUSH1 0x0 DUP1 REVERT JUMPDEST PUSH1 0x0 SLOAD JUMPDEST PUSH1 0x40 MLOAD SWAP1 DUP2 MSTORE PUSH1 0x20 ADD JUMPDEST PUSH1 0x40 MLOAD DUP1 SWAP2 SUB SWAP1 RETURN JUMPDEST PUSH2 0xC2 PUSH2 0xBD CALLDATASIZE PUSH1 0x4 PUSH2 0x7C8 JUMP JUMPDEST PUSH2 0x1D5 JUMP JUMPDEST PUSH1 0x40 MLOAD SWAP1 ISZERO ISZERO DUP2 MSTORE PUSH1 0x20 ADD PUSH2 0xA6 JUMP JUMPDEST PUSH2 0xE5 PUSH2 0xE0 CALLDATASIZE PUSH1 0x4 PUSH2 0x7C8 JUMP JUMPDEST PUSH2 0x230 JUMP JUMPDEST PUSH1 0x40 DUP1 MLOAD SWAP3 DUP4 MSTORE PUSH1 0x20 DUP4 ADD SWAP2 SWAP1 SWAP2 MSTORE ADD PUSH2 0xA6 JUMP JUMPDEST PUSH2 0x9C PUSH2 0x108 CALLDATASIZE PUSH1 0x4 PUSH2 0x7E1 JUMP JUMPDEST PUSH2 0x290 JUMP JUMPDEST PUSH2 0x120 PUSH2 0x11B CALLDATASIZE PUSH1 0x4 PUSH2 0x7C8 JUMP JUMPDEST PUSH2 0x42E JUMP JUMPDEST PUSH1 0x40 DUP1 MLOAD SWAP6 DUP7 MSTORE PUSH1 0x20 DUP7 ADD SWAP5 SWAP1 SWAP5 MSTORE SWAP2 ISZERO ISZERO SWAP3 DUP5 ADD SWAP3 SWAP1 SWAP3 MSTORE PUSH1 0x1 PUSH1 0x1 PUSH1 0xA0 SHL SUB SWAP1 SWAP2 AND PUSH1 0x60 DUP4 ADD MSTORE PUSH8 0xFFFFFFFFFFFFFFFF AND PUSH1 0x80 DUP3 ADD MSTORE PUSH1 0xA0 ADD PUSH2 0xA6 JUMP JUMPDEST PUSH1 0x40 MLOAD PUSH1 0x1 PUSH1 0x1 PUSH1 0xA0 SHL SUB PUSH32 0x0 AND DUP2 MSTORE PUSH1 0x20 ADD PUSH2 0xA6 JUMP JUMPDEST PUSH2 0x9C PUSH2 0x1A5 CALLDATASIZE PUSH1 0x4 PUSH2 0x7E1 JUMP JUMPDEST PUSH2 0x4C2 JUMP JUMPDEST PUSH2 0x1BD PUSH2 0x1B8 CALLDATASIZE PUSH1 0x4 PUSH2 0x7C8 JUMP JUMPDEST PUSH2 0x52B JUMP JUMPDEST STOP JUMPDEST PUSH2 0x1C7 PUSH2 0x642 JUMP JUMPDEST PUSH1 0x40 MLOAD PUSH2 0xA6 SWAP3 SWAP2 SWAP1 PUSH2 0x83F JUMP JUMPDEST PUSH1 0x0 DUP1 SLOAD DUP3 LT PUSH2 0x200 JUMPI PUSH1 0x40 MLOAD PUSH4 0x112517F3 PUSH1 0xE2 SHL DUP2 MSTORE PUSH1 0x4 DUP2 ADD DUP4 SWAP1 MSTORE PUSH1 0x24 ADD JUMPDEST PUSH1 0x40 MLOAD DUP1 SWAP2 SUB SWAP1 REVERT JUMPDEST PUSH1 0x0 DUP3 DUP2 SLOAD DUP2 LT PUSH2 0x213 JUMPI PUSH2 0x213 PUSH2 0x86D JUMP JUMPDEST PUSH1 0x0 SWAP2 DUP3 MSTORE PUSH1 0x20 SWAP1 SWAP2 KECCAK256 PUSH1 0x2 PUSH1 0x3 SWAP1 SWAP3 MUL ADD ADD SLOAD PUSH1 0xFF AND SWAP3 SWAP2 POP POP JUMP JUMPDEST PUSH1 0x0 DUP1 SLOAD DUP2 SWAP1 DUP4 LT PUSH2 0x258 JUMPI PUSH1 0x40 MLOAD PUSH4 0x112517F3 PUSH1 0xE2 SHL DUP2 MSTORE PUSH1 0x4 DUP2 ADD DUP5 SWAP1 MSTORE PUSH1 0x24 ADD PUSH2 0x1F7 JUMP JUMPDEST PUSH1 0x0 DUP1 DUP5 DUP2 SLOAD DUP2 LT PUSH2 0x26C JUMPI PUSH2 0x26C PUSH2 0x86D JUMP JUMPDEST SWAP1 PUSH1 0x0 MSTORE PUSH1 0x20 PUSH1 0x0 KECCAK256 SWAP1 PUSH1 0x3 MUL ADD SWAP1 POP DUP1 PUSH1 0x0 ADD SLOAD DUP2 PUSH1 0x1 ADD SLOAD SWAP3 POP SWAP3 POP POP SWAP2 POP SWAP2 JUMP JUMPDEST PUSH1 0x0 DUP1 PUSH2 0x29D DUP5 DUP5 PUSH2 0x4C2 JUMP JUMPDEST SLT PUSH2 0x2C5 JUMPI PUSH1 0x40 MLOAD PUSH4 0xD21621B PUSH1 0xE0 SHL DUP2 MSTORE PUSH1 0x4 DUP2 ADD DUP5 SWAP1 MSTORE PUSH1 0x24 DUP2 ADD DUP4 SWAP1 MSTORE PUSH1 0x44 ADD PUSH2 0x1F7 JUMP JUMPDEST PUSH1 0x0 DUP1 SLOAD PUSH1 0x40 DUP1 MLOAD PUSH1 0xA0 DUP2 ADD DUP3 MSTORE DUP7 DUP2 MSTORE PUSH1 0x20 DUP2 ADD DUP7 DUP2 MSTORE PUSH1 0x1 DUP3 DUP5 ADD DUP2 DUP2 MSTORE CALLER PUSH1 0x60 DUP6 ADD DUP2 DUP2 MSTORE PUSH8 0xFFFFFFFFFFFFFFFF TIMESTAMP DUP2 AND PUSH1 0x80 DUP9 ADD SWAP1 DUP2 MSTORE SWAP5 DUP10 ADD DUP11 SSTORE SWAP9 DUP1 MSTORE SWAP5 MLOAD PUSH1 0x3 DUP9 MUL PUSH32 0x290DECD9548B62A8D60345A988386FC84BA6BC95484008F6362F93160EF3E563 DUP2 ADD SWAP2 SWAP1 SWAP2 SSTORE SWAP4 MLOAD PUSH32 0x290DECD9548B62A8D60345A988386FC84BA6BC95484008F6362F93160EF3E564 DUP6 ADD SSTORE SWAP1 MLOAD PUSH32 0x290DECD9548B62A8D60345A988386FC84BA6BC95484008F6362F93160EF3E565 SWAP1 SWAP4 ADD DUP1 SLOAD SWAP5 MLOAD SWAP3 MLOAD SWAP1 SWAP8 AND PUSH1 0x1 PUSH1 0xA8 SHL MUL PUSH8 0xFFFFFFFFFFFFFFFF PUSH1 0xA8 SHL NOT PUSH1 0x1 PUSH1 0x1 PUSH1 0xA0 SHL SUB SWAP4 SWAP1 SWAP4 AND PUSH2 0x100 MUL PUSH2 0x100 PUSH1 0x1 PUSH1 0xA8 SHL SUB NOT SWAP5 ISZERO ISZERO SWAP5 SWAP1 SWAP5 AND PUSH1 0x1 PUSH1 0x1 PUSH1 0xA8 SHL SUB NOT SWAP1 SWAP6 AND SWAP5 SWAP1 SWAP5 OR SWAP3 SWAP1 SWAP3 OR AND SWAP2 SWAP1 SWAP2 OR SWAP1 SWAP4 SSTORE MLOAD SWAP1 SWAP2 DUP5 SWAP2 DUP7 SWAP2 DUP5 SWAP2 PUSH32 0xC1F56AA29CF69C731720437087F060684A7C45B1E66E36B4CF08C95BA3FC33E0 SWAP2 PUSH2 0x41D SWAP2 PUSH1 0x1 PUSH1 0x1 PUSH1 0xA0 SHL SUB SWAP2 SWAP1 SWAP2 AND DUP2 MSTORE PUSH1 0x20 ADD SWAP1 JUMP JUMPDEST PUSH1 0x40 MLOAD DUP1 SWAP2 SUB SWAP1 LOG4 SWAP1 POP JUMPDEST SWAP3 SWAP2 POP POP JUMP JUMPDEST PUSH1 0x0 DUP1 PUSH1 0x0 DUP1 PUSH1 0x0 DUP1 DUP1 SLOAD SWAP1 POP DUP7 LT PUSH2 0x45D JUMPI PUSH1 0x40 MLOAD PUSH4 0x112517F3 PUSH1 0xE2 SHL DUP2 MSTORE PUSH1 0x4 DUP2 ADD DUP8 SWAP1 MSTORE PUSH1 0x24 ADD PUSH2 0x1F7 JUMP JUMPDEST PUSH1 0x0 DUP1 DUP8 DUP2 SLOAD DUP2 LT PUSH2 0x471 JUMPI PUSH2 0x471 PUSH2 0x86D JUMP JUMPDEST PUSH1 0x0 SWAP2 DUP3 MSTORE PUSH1 0x20 SWAP1 SWAP2 KECCAK256 PUSH1 0x3 SWAP1 SWAP2 MUL ADD DUP1 SLOAD PUSH1 0x1 DUP3 ADD SLOAD PUSH1 0x2 SWAP1 SWAP3 ADD SLOAD SWAP1 SWAP10 SWAP2 SWAP9 POP PUSH1 0xFF DUP2 AND SWAP8 POP PUSH2 0x100 DUP2 DIV PUSH1 0x1 PUSH1 0x1 PUSH1 0xA0 SHL SUB AND SWAP7 POP PUSH1 0x1 PUSH1 0xA8 SHL SWAP1 DIV PUSH8 0xFFFFFFFFFFFFFFFF AND SWAP5 POP SWAP3 POP POP POP JUMP JUMPDEST PUSH1 0x0 DUP1 JUMPDEST PUSH1 0x0 SLOAD DUP2 LT ISZERO PUSH2 0x520 JUMPI PUSH1 0x0 DUP1 DUP3 DUP2 SLOAD DUP2 LT PUSH2 0x4E4 JUMPI PUSH2 0x4E4 PUSH2 0x86D JUMP JUMPDEST SWAP1 PUSH1 0x0 MSTORE PUSH1 0x20 PUSH1 0x0 KECCAK256 SWAP1 PUSH1 0x3 MUL ADD SWAP1 POP DUP5 DUP2 PUSH1 0x0 ADD SLOAD EQ DUP1 ISZERO PUSH2 0x50A JUMPI POP DUP4 DUP2 PUSH1 0x1 ADD SLOAD EQ JUMPDEST ISZERO PUSH2 0x517 JUMPI POP SWAP1 POP PUSH2 0x428 JUMP JUMPDEST POP PUSH1 0x1 ADD PUSH2 0x4C6 JUMP JUMPDEST POP PUSH1 0x0 NOT SWAP4 SWAP3 POP POP POP JUMP JUMPDEST PUSH1 0x0 SLOAD DUP2 LT PUSH2 0x550 JUMPI PUSH1 0x40 MLOAD PUSH4 0x112517F3 PUSH1 0xE2 SHL DUP2 MSTORE PUSH1 0x4 DUP2 ADD DUP3 SWAP1 MSTORE PUSH1 0x24 ADD PUSH2 0x1F7 JUMP JUMPDEST PUSH1 0x0 DUP1 DUP3 DUP2 SLOAD DUP2 LT PUSH2 0x564 JUMPI PUSH2 0x564 PUSH2 0x86D JUMP JUMPDEST SWAP1 PUSH1 0x0 MSTORE PUSH1 0x20 PUSH1 0x0 KECCAK256 SWAP1 PUSH1 0x3 MUL ADD SWAP1 POP DUP1 PUSH1 0x2 ADD PUSH1 0x1 SWAP1 SLOAD SWAP1 PUSH2 0x100 EXP SWAP1 DIV PUSH1 0x1 PUSH1 0x1 PUSH1 0xA0 SHL SUB AND PUSH1 0x1 PUSH1 0x1 PUSH1 0xA0 SHL SUB AND CALLER PUSH1 0x1 PUSH1 0x1 PUSH1 0xA0 SHL SUB AND EQ ISZERO DUP1 ISZERO PUSH2 0x5D6 JUMPI POP CALLER PUSH1 0x1 PUSH1 0x1 PUSH1 0xA0 SHL SUB PUSH32 0x0 AND EQ ISZERO JUMPDEST ISZERO PUSH2 0x5FD JUMPI PUSH1 0x40 MLOAD PUSH4 0xF2F808ED PUSH1 0xE0 SHL DUP2 MSTORE PUSH1 0x4 DUP2 ADD DUP4 SWAP1 MSTORE CALLER PUSH1 0x24 DUP3 ADD MSTORE PUSH1 0x44 ADD PUSH2 0x1F7 JUMP JUMPDEST PUSH1 0x2 DUP2 ADD DUP1 SLOAD PUSH1 0xFF NOT AND SWAP1 SSTORE PUSH1 0x40 MLOAD CALLER DUP2 MSTORE DUP3 SWAP1 PUSH32 0x7B0104BB092CE7F934DA29F0C0DCB9FA85E71475ACA2777258FACD66DCA4DC6E SWAP1 PUSH1 0x20 ADD PUSH1 0x40 MLOAD DUP1 SWAP2 SUB SWAP1 LOG2 POP POP JUMP JUMPDEST PUSH1 0x60 DUP1 PUSH1 0x0 DUP1 JUMPDEST PUSH1 0x0 SLOAD DUP2 LT ISZERO PUSH2 0x698 JUMPI PUSH1 0x0 DUP2 DUP2 SLOAD DUP2 LT PUSH2 0x666 JUMPI PUSH2 0x666 PUSH2 0x86D JUMP JUMPDEST PUSH1 0x0 SWAP2 DUP3 MSTORE PUSH1 0x20 SWAP1 SWAP2 KECCAK256 PUSH1 0x2 PUSH1 0x3 SWAP1 SWAP3 MUL ADD ADD SLOAD PUSH1 0xFF AND ISZERO PUSH2 0x690 JUMPI PUSH2 0x68D PUSH1 0x1 DUP4 PUSH2 0x883 JUMP JUMPDEST SWAP2 POP JUMPDEST PUSH1 0x1 ADD PUSH2 0x649 JUMP JUMPDEST POP DUP1 PUSH8 0xFFFFFFFFFFFFFFFF DUP2 GT ISZERO PUSH2 0x6B2 JUMPI PUSH2 0x6B2 PUSH2 0x8A4 JUMP JUMPDEST PUSH1 0x40 MLOAD SWAP1 DUP1 DUP3 MSTORE DUP1 PUSH1 0x20 MUL PUSH1 0x20 ADD DUP3 ADD PUSH1 0x40 MSTORE DUP1 ISZERO PUSH2 0x6DB JUMPI DUP2 PUSH1 0x20 ADD PUSH1 0x20 DUP3 MUL DUP1 CALLDATASIZE DUP4 CALLDATACOPY ADD SWAP1 POP JUMPDEST POP SWAP3 POP DUP1 PUSH8 0xFFFFFFFFFFFFFFFF DUP2 GT ISZERO PUSH2 0x6F7 JUMPI PUSH2 0x6F7 PUSH2 0x8A4 JUMP JUMPDEST PUSH1 0x40 MLOAD SWAP1 DUP1 DUP3 MSTORE DUP1 PUSH1 0x20 MUL PUSH1 0x20 ADD DUP3 ADD PUSH1 0x40 MSTORE DUP1 ISZERO PUSH2 0x720 JUMPI DUP2 PUSH1 0x20 ADD PUSH1 0x20 DUP3 MUL DUP1 CALLDATASIZE DUP4 CALLDATACOPY ADD SWAP1 POP JUMPDEST POP SWAP2 POP PUSH1 0x0 DUP1 JUMPDEST PUSH1 0x0 SLOAD DUP2 LT ISZERO PUSH2 0x7C1 JUMPI PUSH1 0x0 DUP1 DUP3 DUP2 SLOAD DUP2 LT PUSH2 0x745 JUMPI PUSH2 0x745 PUSH2 0x86D JUMP JUMPDEST PUSH1 0x0 SWAP2 DUP3 MSTORE PUSH1 0x20 SWAP1 SWAP2 KECCAK256 PUSH1 0x3 SWAP1 SWAP2 MUL ADD PUSH1 0x2 DUP2 ADD SLOAD SWAP1 SWAP2 POP PUSH1 0xFF AND ISZERO PUSH2 0x7B8 JUMPI DUP1 PUSH1 0x0 ADD SLOAD DUP7 DUP5 DUP2 MLOAD DUP2 LT PUSH2 0x77C JUMPI PUSH2 0x77C PUSH2 0x86D JUMP JUMPDEST PUSH1 0x20 MUL PUSH1 0x20 ADD ADD DUP2 DUP2 MSTORE POP POP DUP1 PUSH1 0x1 ADD SLOAD DUP6 DUP5 DUP2 MLOAD DUP2 LT PUSH2 0x79F JUMPI PUSH2 0x79F PUSH2 0x86D JUMP JUMPDEST PUSH1 0x20 SWAP1 DUP2 MUL SWAP2 SWAP1 SWAP2 ADD ADD MSTORE PUSH2 0x7B5 PUSH1 0x1 DUP5 PUSH2 0x883 JUMP JUMPDEST SWAP3 POP JUMPDEST POP PUSH1 0x1 ADD PUSH2 0x727 JUMP JUMPDEST POP POP POP SWAP1 SWAP2 JUMP JUMPDEST PUSH1 0x0 PUSH1 0x20 DUP3 DUP5 SUB SLT ISZERO PUSH2 0x7DA JUMPI PUSH1 0x0 DUP1 REVERT JUMPDEST POP CALLDATALOAD SWAP2 SWAP1 POP JUMP JUMPDEST PUSH1 0x0 DUP1 PUSH1 0x40 DUP4 DUP6 SUB SLT ISZERO PUSH2 0x7F4 JUMPI PUSH1 0x0 DUP1 REVERT JUMPDEST POP POP DUP1 CALLDATALOAD SWAP3 PUSH1 0x20 SWAP1 SWAP2 ADD CALLDATALOAD SWAP2 POP JUMP JUMPDEST PUSH1 0x0 DUP2 MLOAD DUP1 DUP5 MSTORE PUSH1 0x20 DUP1 DUP6 ADD SWAP5 POP PUSH1 0x20 DUP5 ADD PUSH1 0x0 JUMPDEST DUP4 DUP2 LT ISZERO PUSH2 0x834 JUMPI DUP2 MLOAD DUP8 MSTORE SWAP6 DUP3 ADD SWAP6 SWAP1 DUP3 ADD SWAP1 PUSH1 0x1 ADD PUSH2 0x818 JUMP JUMPDEST POP SWAP5 SWAP6 SWAP5 POP POP POP POP POP JUMP JUMPDEST PUSH1 0x40 DUP2 MSTORE PUSH1 0x0 PUSH2 0x852 PUSH1 0x40 DUP4 ADD DUP6 PUSH2 0x803 JUMP JUMPDEST DUP3 DUP2 SUB PUSH1 0x20 DUP5 ADD MSTORE PUSH2 0x864 DUP2 DUP6 PUSH2 0x803 JUMP JUMPDEST SWAP6 SWAP5 POP POP POP POP POP JUMP JUMPDEST PUSH4 0x4E487B71 PUSH1 0xE0 SHL PUSH1 0x0 MSTORE PUSH1 0x32 PUSH1 0x4 MSTORE PUSH1 0x24 PUSH1 0x0 REVERT JUMPDEST DUP1 DUP3 ADD DUP1 DUP3 GT ISZERO PUSH2 0x428 JUMPI PUSH4 0x4E487B71 PUSH1 0xE0 SHL PUSH1 0x0 MSTORE PUSH1 0x11 PUSH1 0x4 MSTORE PUSH1 0x24 PUSH1 0x0 REVERT JUMPDEST PUSH4 0x4E487B71 PUSH1 0xE0 SHL PUSH1 0x0 MSTORE PUSH1 0x41 PUSH1 0x4 MSTORE PUSH1 0x24 PUSH1 0x0 REVERT INVALID LOG2 PUSH5 0x6970667358 0x22 SLT KECCAK256 0xD9 PUSH0 SWAP5 NOT CREATE2 0xC6 0xBB STATICCALL 0x4B MCOPY 0xCA CREATE SLOAD 0xCF DUP13 SUB 0xD 0xF 0x2F 0xC CODESIZE CHAINID GASPRICE 0xBE 0xBA PUSH22 0x2CE454C15B6B64736F6C634300081800330000000000 "},"methodIdentifiers":{"addID(uint256,uint256)":"72b8dee1","getActiveIDs()":"e86cf917","getIDIndex(uint256,uint256)":"9a80d1dd","getIDSize()":"2d3d1104","getIDs(uint256)":"6f1acd98","getIdentity(uint256)":"85e3f058","getState(uint256)":"44c9af28","owner()":"8da5cb5b","revokeID(uint256)":"ce3375d5"}}}}}